{
  "_format": "hh-sol-artifact-1",
  "contractName": "GenerationZ",
  "sourceName": "contracts/GenerationZ.sol",
  "abi": [
    {
      "inputs": [
        {
          "internalType": "address",
          "name": "recipient",
          "type": "address"
        }
      ],
      "stateMutability": "nonpayable",
      "type": "constructor"
    },
    {
      "inputs": [],
      "name": "ECDSAInvalidSignature",
      "type": "error"
    },
    {
      "inputs": [
        {
          "internalType": "uint256",
          "name": "length",
          "type": "uint256"
        }
      ],
      "name": "ECDSAInvalidSignatureLength",
      "type": "error"
    },
    {
      "inputs": [
        {
          "internalType": "bytes32",
          "name": "s",
          "type": "bytes32"
        }
      ],
      "name": "ECDSAInvalidSignatureS",
      "type": "error"
    },
    {
      "inputs": [
        {
          "internalType": "address",
          "name": "spender",
          "type": "address"
        },
        {
          "internalType": "uint256",
          "name": "value",
          "type": "uint256"
        }
      ],
      "name": "ERC1363ApproveFailed",
      "type": "error"
    },
    {
      "inputs": [
        {
          "internalType": "address",
          "name": "receiver",
          "type": "address"
        }
      ],
      "name": "ERC1363InvalidReceiver",
      "type": "error"
    },
    {
      "inputs": [
        {
          "internalType": "address",
          "name": "spender",
          "type": "address"
        }
      ],
      "name": "ERC1363InvalidSpender",
      "type": "error"
    },
    {
      "inputs": [
        {
          "internalType": "address",
          "name": "receiver",
          "type": "address"
        },
        {
          "internalType": "uint256",
          "name": "value",
          "type": "uint256"
        }
      ],
      "name": "ERC1363TransferFailed",
      "type": "error"
    },
    {
      "inputs": [
        {
          "internalType": "address",
          "name": "sender",
          "type": "address"
        },
        {
          "internalType": "address",
          "name": "receiver",
          "type": "address"
        },
        {
          "internalType": "uint256",
          "name": "value",
          "type": "uint256"
        }
      ],
      "name": "ERC1363TransferFromFailed",
      "type": "error"
    },
    {
      "inputs": [
        {
          "internalType": "address",
          "name": "spender",
          "type": "address"
        },
        {
          "internalType": "uint256",
          "name": "allowance",
          "type": "uint256"
        },
        {
          "internalType": "uint256",
          "name": "needed",
          "type": "uint256"
        }
      ],
      "name": "ERC20InsufficientAllowance",
      "type": "error"
    },
    {
      "inputs": [
        {
          "internalType": "address",
          "name": "sender",
          "type": "address"
        },
        {
          "internalType": "uint256",
          "name": "balance",
          "type": "uint256"
        },
        {
          "internalType": "uint256",
          "name": "needed",
          "type": "uint256"
        }
      ],
      "name": "ERC20InsufficientBalance",
      "type": "error"
    },
    {
      "inputs": [
        {
          "internalType": "address",
          "name": "approver",
          "type": "address"
        }
      ],
      "name": "ERC20InvalidApprover",
      "type": "error"
    },
    {
      "inputs": [
        {
          "internalType": "address",
          "name": "receiver",
          "type": "address"
        }
      ],
      "name": "ERC20InvalidReceiver",
      "type": "error"
    },
    {
      "inputs": [
        {
          "internalType": "address",
          "name": "sender",
          "type": "address"
        }
      ],
      "name": "ERC20InvalidSender",
      "type": "error"
    },
    {
      "inputs": [
        {
          "internalType": "address",
          "name": "spender",
          "type": "address"
        }
      ],
      "name": "ERC20InvalidSpender",
      "type": "error"
    },
    {
      "inputs": [
        {
          "internalType": "uint256",
          "name": "deadline",
          "type": "uint256"
        }
      ],
      "name": "ERC2612ExpiredSignature",
      "type": "error"
    },
    {
      "inputs": [
        {
          "internalType": "address",
          "name": "signer",
          "type": "address"
        },
        {
          "internalType": "address",
          "name": "owner",
          "type": "address"
        }
      ],
      "name": "ERC2612InvalidSigner",
      "type": "error"
    },
    {
      "inputs": [
        {
          "internalType": "uint256",
          "name": "maxLoan",
          "type": "uint256"
        }
      ],
      "name": "ERC3156ExceededMaxLoan",
      "type": "error"
    },
    {
      "inputs": [
        {
          "internalType": "address",
          "name": "receiver",
          "type": "address"
        }
      ],
      "name": "ERC3156InvalidReceiver",
      "type": "error"
    },
    {
      "inputs": [
        {
          "internalType": "address",
          "name": "token",
          "type": "address"
        }
      ],
      "name": "ERC3156UnsupportedToken",
      "type": "error"
    },
    {
      "inputs": [
        {
          "internalType": "address",
          "name": "account",
          "type": "address"
        },
        {
          "internalType": "uint256",
          "name": "currentNonce",
          "type": "uint256"
        }
      ],
      "name": "InvalidAccountNonce",
      "type": "error"
    },
    {
      "inputs": [],
      "name": "InvalidShortString",
      "type": "error"
    },
    {
      "inputs": [
        {
          "internalType": "string",
          "name": "str",
          "type": "string"
        }
      ],
      "name": "StringTooLong",
      "type": "error"
    },
    {
      "anonymous": false,
      "inputs": [
        {
          "indexed": true,
          "internalType": "address",
          "name": "owner",
          "type": "address"
        },
        {
          "indexed": true,
          "internalType": "address",
          "name": "spender",
          "type": "address"
        },
        {
          "indexed": false,
          "internalType": "uint256",
          "name": "value",
          "type": "uint256"
        }
      ],
      "name": "Approval",
      "type": "event"
    },
    {
      "anonymous": false,
      "inputs": [],
      "name": "EIP712DomainChanged",
      "type": "event"
    },
    {
      "anonymous": false,
      "inputs": [
        {
          "indexed": true,
          "internalType": "address",
          "name": "from",
          "type": "address"
        },
        {
          "indexed": true,
          "internalType": "address",
          "name": "to",
          "type": "address"
        },
        {
          "indexed": false,
          "internalType": "uint256",
          "name": "value",
          "type": "uint256"
        }
      ],
      "name": "Transfer",
      "type": "event"
    },
    {
      "inputs": [],
      "name": "DOMAIN_SEPARATOR",
      "outputs": [
        {
          "internalType": "bytes32",
          "name": "",
          "type": "bytes32"
        }
      ],
      "stateMutability": "view",
      "type": "function"
    },
    {
      "inputs": [
        {
          "internalType": "address",
          "name": "owner",
          "type": "address"
        },
        {
          "internalType": "address",
          "name": "spender",
          "type": "address"
        }
      ],
      "name": "allowance",
      "outputs": [
        {
          "internalType": "uint256",
          "name": "",
          "type": "uint256"
        }
      ],
      "stateMutability": "view",
      "type": "function"
    },
    {
      "inputs": [
        {
          "internalType": "address",
          "name": "spender",
          "type": "address"
        },
        {
          "internalType": "uint256",
          "name": "value",
          "type": "uint256"
        }
      ],
      "name": "approve",
      "outputs": [
        {
          "internalType": "bool",
          "name": "",
          "type": "bool"
        }
      ],
      "stateMutability": "nonpayable",
      "type": "function"
    },
    {
      "inputs": [
        {
          "internalType": "address",
          "name": "spender",
          "type": "address"
        },
        {
          "internalType": "uint256",
          "name": "value",
          "type": "uint256"
        }
      ],
      "name": "approveAndCall",
      "outputs": [
        {
          "internalType": "bool",
          "name": "",
          "type": "bool"
        }
      ],
      "stateMutability": "nonpayable",
      "type": "function"
    },
    {
      "inputs": [
        {
          "internalType": "address",
          "name": "spender",
          "type": "address"
        },
        {
          "internalType": "uint256",
          "name": "value",
          "type": "uint256"
        },
        {
          "internalType": "bytes",
          "name": "data",
          "type": "bytes"
        }
      ],
      "name": "approveAndCall",
      "outputs": [
        {
          "internalType": "bool",
          "name": "",
          "type": "bool"
        }
      ],
      "stateMutability": "nonpayable",
      "type": "function"
    },
    {
      "inputs": [
        {
          "internalType": "address",
          "name": "account",
          "type": "address"
        }
      ],
      "name": "balanceOf",
      "outputs": [
        {
          "internalType": "uint256",
          "name": "",
          "type": "uint256"
        }
      ],
      "stateMutability": "view",
      "type": "function"
    },
    {
      "inputs": [
        {
          "internalType": "uint256",
          "name": "value",
          "type": "uint256"
        }
      ],
      "name": "burn",
      "outputs": [],
      "stateMutability": "nonpayable",
      "type": "function"
    },
    {
      "inputs": [
        {
          "internalType": "address",
          "name": "account",
          "type": "address"
        },
        {
          "internalType": "uint256",
          "name": "value",
          "type": "uint256"
        }
      ],
      "name": "burnFrom",
      "outputs": [],
      "stateMutability": "nonpayable",
      "type": "function"
    },
    {
      "inputs": [],
      "name": "decimals",
      "outputs": [
        {
          "internalType": "uint8",
          "name": "",
          "type": "uint8"
        }
      ],
      "stateMutability": "view",
      "type": "function"
    },
    {
      "inputs": [],
      "name": "eip712Domain",
      "outputs": [
        {
          "internalType": "bytes1",
          "name": "fields",
          "type": "bytes1"
        },
        {
          "internalType": "string",
          "name": "name",
          "type": "string"
        },
        {
          "internalType": "string",
          "name": "version",
          "type": "string"
        },
        {
          "internalType": "uint256",
          "name": "chainId",
          "type": "uint256"
        },
        {
          "internalType": "address",
          "name": "verifyingContract",
          "type": "address"
        },
        {
          "internalType": "bytes32",
          "name": "salt",
          "type": "bytes32"
        },
        {
          "internalType": "uint256[]",
          "name": "extensions",
          "type": "uint256[]"
        }
      ],
      "stateMutability": "view",
      "type": "function"
    },
    {
      "inputs": [
        {
          "internalType": "address",
          "name": "token",
          "type": "address"
        },
        {
          "internalType": "uint256",
          "name": "value",
          "type": "uint256"
        }
      ],
      "name": "flashFee",
      "outputs": [
        {
          "internalType": "uint256",
          "name": "",
          "type": "uint256"
        }
      ],
      "stateMutability": "view",
      "type": "function"
    },
    {
      "inputs": [
        {
          "internalType": "contract IERC3156FlashBorrower",
          "name": "receiver",
          "type": "address"
        },
        {
          "internalType": "address",
          "name": "token",
          "type": "address"
        },
        {
          "internalType": "uint256",
          "name": "value",
          "type": "uint256"
        },
        {
          "internalType": "bytes",
          "name": "data",
          "type": "bytes"
        }
      ],
      "name": "flashLoan",
      "outputs": [
        {
          "internalType": "bool",
          "name": "",
          "type": "bool"
        }
      ],
      "stateMutability": "nonpayable",
      "type": "function"
    },
    {
      "inputs": [
        {
          "internalType": "address",
          "name": "token",
          "type": "address"
        }
      ],
      "name": "maxFlashLoan",
      "outputs": [
        {
          "internalType": "uint256",
          "name": "",
          "type": "uint256"
        }
      ],
      "stateMutability": "view",
      "type": "function"
    },
    {
      "inputs": [],
      "name": "name",
      "outputs": [
        {
          "internalType": "string",
          "name": "",
          "type": "string"
        }
      ],
      "stateMutability": "view",
      "type": "function"
    },
    {
      "inputs": [
        {
          "internalType": "address",
          "name": "owner",
          "type": "address"
        }
      ],
      "name": "nonces",
      "outputs": [
        {
          "internalType": "uint256",
          "name": "",
          "type": "uint256"
        }
      ],
      "stateMutability": "view",
      "type": "function"
    },
    {
      "inputs": [
        {
          "internalType": "address",
          "name": "owner",
          "type": "address"
        },
        {
          "internalType": "address",
          "name": "spender",
          "type": "address"
        },
        {
          "internalType": "uint256",
          "name": "value",
          "type": "uint256"
        },
        {
          "internalType": "uint256",
          "name": "deadline",
          "type": "uint256"
        },
        {
          "internalType": "uint8",
          "name": "v",
          "type": "uint8"
        },
        {
          "internalType": "bytes32",
          "name": "r",
          "type": "bytes32"
        },
        {
          "internalType": "bytes32",
          "name": "s",
          "type": "bytes32"
        }
      ],
      "name": "permit",
      "outputs": [],
      "stateMutability": "nonpayable",
      "type": "function"
    },
    {
      "inputs": [
        {
          "internalType": "bytes4",
          "name": "interfaceId",
          "type": "bytes4"
        }
      ],
      "name": "supportsInterface",
      "outputs": [
        {
          "internalType": "bool",
          "name": "",
          "type": "bool"
        }
      ],
      "stateMutability": "view",
      "type": "function"
    },
    {
      "inputs": [],
      "name": "symbol",
      "outputs": [
        {
          "internalType": "string",
          "name": "",
          "type": "string"
        }
      ],
      "stateMutability": "view",
      "type": "function"
    },
    {
      "inputs": [],
      "name": "totalSupply",
      "outputs": [
        {
          "internalType": "uint256",
          "name": "",
          "type": "uint256"
        }
      ],
      "stateMutability": "view",
      "type": "function"
    },
    {
      "inputs": [
        {
          "internalType": "address",
          "name": "to",
          "type": "address"
        },
        {
          "internalType": "uint256",
          "name": "value",
          "type": "uint256"
        }
      ],
      "name": "transfer",
      "outputs": [
        {
          "internalType": "bool",
          "name": "",
          "type": "bool"
        }
      ],
      "stateMutability": "nonpayable",
      "type": "function"
    },
    {
      "inputs": [
        {
          "internalType": "address",
          "name": "to",
          "type": "address"
        },
        {
          "internalType": "uint256",
          "name": "value",
          "type": "uint256"
        }
      ],
      "name": "transferAndCall",
      "outputs": [
        {
          "internalType": "bool",
          "name": "",
          "type": "bool"
        }
      ],
      "stateMutability": "nonpayable",
      "type": "function"
    },
    {
      "inputs": [
        {
          "internalType": "address",
          "name": "to",
          "type": "address"
        },
        {
          "internalType": "uint256",
          "name": "value",
          "type": "uint256"
        },
        {
          "internalType": "bytes",
          "name": "data",
          "type": "bytes"
        }
      ],
      "name": "transferAndCall",
      "outputs": [
        {
          "internalType": "bool",
          "name": "",
          "type": "bool"
        }
      ],
      "stateMutability": "nonpayable",
      "type": "function"
    },
    {
      "inputs": [
        {
          "internalType": "address",
          "name": "from",
          "type": "address"
        },
        {
          "internalType": "address",
          "name": "to",
          "type": "address"
        },
        {
          "internalType": "uint256",
          "name": "value",
          "type": "uint256"
        }
      ],
      "name": "transferFrom",
      "outputs": [
        {
          "internalType": "bool",
          "name": "",
          "type": "bool"
        }
      ],
      "stateMutability": "nonpayable",
      "type": "function"
    },
    {
      "inputs": [
        {
          "internalType": "address",
          "name": "from",
          "type": "address"
        },
        {
          "internalType": "address",
          "name": "to",
          "type": "address"
        },
        {
          "internalType": "uint256",
          "name": "value",
          "type": "uint256"
        },
        {
          "internalType": "bytes",
          "name": "data",
          "type": "bytes"
        }
      ],
      "name": "transferFromAndCall",
      "outputs": [
        {
          "internalType": "bool",
          "name": "",
          "type": "bool"
        }
      ],
      "stateMutability": "nonpayable",
      "type": "function"
    },
    {
      "inputs": [
        {
          "internalType": "address",
          "name": "from",
          "type": "address"
        },
        {
          "internalType": "address",
          "name": "to",
          "type": "address"
        },
        {
          "internalType": "uint256",
          "name": "value",
          "type": "uint256"
        }
      ],
      "name": "transferFromAndCall",
      "outputs": [
        {
          "internalType": "bool",
          "name": "",
          "type": "bool"
        }
      ],
      "stateMutability": "nonpayable",
      "type": "function"
    }
  ],
  "bytecode": "0x61016060405234801561001157600080fd5b50604051613e46380380613e468339818101604052810190610033919061064d565b6040518060400160405280600c81526020017f47656e65726174696f6e205a0000000000000000000000000000000000000000815250806040518060400160405280600181526020017f31000000000000000000000000000000000000000000000000000000000000008152506040518060400160405280600c81526020017f47656e65726174696f6e205a00000000000000000000000000000000000000008152506040518060400160405280600481526020017f47656e5a00000000000000000000000000000000000000000000000000000000815250816003908161011b91906108ca565b50806004908161012b91906108ca565b50505061014260058361021760201b90919060201c565b610120818152505061015e60068261021760201b90919060201c565b6101408181525050818051906020012060e08181525050808051906020012061010081815250504660a0818152505061019b61026760201b60201c565b608081815250503073ffffffffffffffffffffffffffffffffffffffff1660c08173ffffffffffffffffffffffffffffffffffffffff1681525050505050610211816101eb6102c260201b60201c565b600a6101f79190610b0b565b633b9aca006102069190610b56565b6102cb60201b60201c565b50610e01565b6000602083511015610239576102328361035360201b60201c565b9050610261565b82610249836103bb60201b60201c565b600001908161025891906108ca565b5060ff60001b90505b92915050565b60007f8b73c3c69bb8fe3d512ecc4cf759cc79239f7b179b0ffacaa9a75d522b39400f60e0516101005146306040516020016102a7959493929190610bcf565b60405160208183030381529060405280519060200120905090565b60006012905090565b600073ffffffffffffffffffffffffffffffffffffffff168273ffffffffffffffffffffffffffffffffffffffff160361033d5760006040517fec442f050000000000000000000000000000000000000000000000000000000081526004016103349190610c22565b60405180910390fd5b61034f600083836103c560201b60201c565b5050565b600080829050601f815111156103a057826040517f305a27a90000000000000000000000000000000000000000000000000000000081526004016103979190610cc2565b60405180910390fd5b8051816103ac90610d14565b60001c1760001b915050919050565b6000819050919050565b600073ffffffffffffffffffffffffffffffffffffffff168373ffffffffffffffffffffffffffffffffffffffff160361041757806002600082825461040b9190610d7b565b925050819055506104ea565b60008060008573ffffffffffffffffffffffffffffffffffffffff1673ffffffffffffffffffffffffffffffffffffffff168152602001908152602001600020549050818110156104a3578381836040517fe450d38c00000000000000000000000000000000000000000000000000000000815260040161049a93929190610daf565b60405180910390fd5b8181036000808673ffffffffffffffffffffffffffffffffffffffff1673ffffffffffffffffffffffffffffffffffffffff16815260200190815260200160002081905550505b600073ffffffffffffffffffffffffffffffffffffffff168273ffffffffffffffffffffffffffffffffffffffff16036105335780600260008282540392505081905550610580565b806000808473ffffffffffffffffffffffffffffffffffffffff1673ffffffffffffffffffffffffffffffffffffffff168152602001908152602001600020600082825401925050819055505b8173ffffffffffffffffffffffffffffffffffffffff168373ffffffffffffffffffffffffffffffffffffffff167fddf252ad1be2c89b69c2b068fc378daa952ba7f163c4a11628f55a4df523b3ef836040516105dd9190610de6565b60405180910390a3505050565b600080fd5b600073ffffffffffffffffffffffffffffffffffffffff82169050919050565b600061061a826105ef565b9050919050565b61062a8161060f565b811461063557600080fd5b50565b60008151905061064781610621565b92915050565b600060208284031215610663576106626105ea565b5b600061067184828501610638565b91505092915050565b600081519050919050565b7f4e487b7100000000000000000000000000000000000000000000000000000000600052604160045260246000fd5b7f4e487b7100000000000000000000000000000000000000000000000000000000600052602260045260246000fd5b600060028204905060018216806106fb57607f821691505b60208210810361070e5761070d6106b4565b5b50919050565b60008190508160005260206000209050919050565b60006020601f8301049050919050565b600082821b905092915050565b6000600883026107767fffffffffffffffffffffffffffffffffffffffffffffffffffffffffffffffff82610739565b6107808683610739565b95508019841693508086168417925050509392505050565b6000819050919050565b6000819050919050565b60006107c76107c26107bd84610798565b6107a2565b610798565b9050919050565b6000819050919050565b6107e1836107ac565b6107f56107ed826107ce565b848454610746565b825550505050565b600090565b61080a6107fd565b6108158184846107d8565b505050565b5b818110156108395761082e600082610802565b60018101905061081b565b5050565b601f82111561087e5761084f81610714565b61085884610729565b81016020851015610867578190505b61087b61087385610729565b83018261081a565b50505b505050565b600082821c905092915050565b60006108a160001984600802610883565b1980831691505092915050565b60006108ba8383610890565b9150826002028217905092915050565b6108d38261067a565b67ffffffffffffffff8111156108ec576108eb610685565b5b6108f682546106e3565b61090182828561083d565b600060209050601f8311600181146109345760008415610922578287015190505b61092c85826108ae565b865550610994565b601f19841661094286610714565b60005b8281101561096a57848901518255600182019150602085019450602081019050610945565b868310156109875784890151610983601f891682610890565b8355505b6001600288020188555050505b505050505050565b7f4e487b7100000000000000000000000000000000000000000000000000000000600052601160045260246000fd5b60008160011c9050919050565b6000808291508390505b6001851115610a22578086048111156109fe576109fd61099c565b5b6001851615610a0d5780820291505b8081029050610a1b856109cb565b94506109e2565b94509492505050565b600082610a3b5760019050610af7565b81610a495760009050610af7565b8160018114610a5f5760028114610a6957610a98565b6001915050610af7565b60ff841115610a7b57610a7a61099c565b5b8360020a915084821115610a9257610a9161099c565b5b50610af7565b5060208310610133831016604e8410600b8410161715610acd5782820a905083811115610ac857610ac761099c565b5b610af7565b610ada84848460016109d8565b92509050818404811115610af157610af061099c565b5b81810290505b9392505050565b600060ff82169050919050565b6000610b1682610798565b9150610b2183610afe565b9250610b4e7fffffffffffffffffffffffffffffffffffffffffffffffffffffffffffffffff8484610a2b565b905092915050565b6000610b6182610798565b9150610b6c83610798565b9250828202610b7a81610798565b91508282048414831517610b9157610b9061099c565b5b5092915050565b6000819050919050565b610bab81610b98565b82525050565b610bba81610798565b82525050565b610bc98161060f565b82525050565b600060a082019050610be46000830188610ba2565b610bf16020830187610ba2565b610bfe6040830186610ba2565b610c0b6060830185610bb1565b610c186080830184610bc0565b9695505050505050565b6000602082019050610c376000830184610bc0565b92915050565b600082825260208201905092915050565b60005b83811015610c6c578082015181840152602081019050610c51565b60008484015250505050565b6000601f19601f8301169050919050565b6000610c948261067a565b610c9e8185610c3d565b9350610cae818560208601610c4e565b610cb781610c78565b840191505092915050565b60006020820190508181036000830152610cdc8184610c89565b905092915050565b600081519050919050565b6000819050602082019050919050565b6000610d0b8251610b98565b80915050919050565b6000610d1f82610ce4565b82610d2984610cef565b9050610d3481610cff565b92506020821015610d7457610d6f7fffffffffffffffffffffffffffffffffffffffffffffffffffffffffffffffff83602003600802610739565b831692505b5050919050565b6000610d8682610798565b9150610d9183610798565b9250828201905080821115610da957610da861099c565b5b92915050565b6000606082019050610dc46000830186610bc0565b610dd16020830185610bb1565b610dde6040830184610bb1565b949350505050565b6000602082019050610dfb6000830184610bb1565b92915050565b60805160a05160c05160e051610100516101205161014051612feb610e5b60003960006115c20152600061158701526000611cc801526000611ca70152600061118d015260006111e30152600061120c0152612feb6000f3fe608060405234801561001057600080fd5b50600436106101735760003560e01c8063613255ab116100de578063a9059cbb11610097578063d505accf11610071578063d505accf146104da578063d8fbe994146104f6578063d9d98ce414610526578063dd62ed3e1461055657610173565b8063a9059cbb1461044a578063c1d34b891461047a578063cae9ca51146104aa57610173565b8063613255ab1461035c57806370a082311461038c57806379cc6790146103bc5780637ecebe00146103d857806384b0196e1461040857806395d89b411461042c57610173565b8063313ce56711610130578063313ce567146102745780633177029f146102925780633644e515146102c25780634000aea0146102e057806342966c68146103105780635cffe9de1461032c57610173565b806301ffc9a71461017857806306fdde03146101a8578063095ea7b3146101c65780631296ee62146101f657806318160ddd1461022657806323b872dd14610244575b600080fd5b610192600480360381019061018d9190612191565b610586565b60405161019f91906121d9565b60405180910390f35b6101b0610600565b6040516101bd9190612284565b60405180910390f35b6101e060048036038101906101db919061233a565b610692565b6040516101ed91906121d9565b60405180910390f35b610210600480360381019061020b919061233a565b6106b5565b60405161021d91906121d9565b60405180910390f35b61022e6106d9565b60405161023b9190612389565b60405180910390f35b61025e600480360381019061025991906123a4565b6106e3565b60405161026b91906121d9565b60405180910390f35b61027c610712565b6040516102899190612413565b60405180910390f35b6102ac60048036038101906102a7919061233a565b61071b565b6040516102b991906121d9565b60405180910390f35b6102ca61073f565b6040516102d79190612447565b60405180910390f35b6102fa60048036038101906102f59190612597565b61074e565b60405161030791906121d9565b60405180910390f35b61032a60048036038101906103259190612606565b6107c3565b005b610346600480360381019061034191906126d1565b6107d7565b60405161035391906121d9565b60405180910390f35b61037660048036038101906103719190612759565b6109d4565b6040516103839190612389565b60405180910390f35b6103a660048036038101906103a19190612759565b610a4b565b6040516103b39190612389565b60405180910390f35b6103d660048036038101906103d1919061233a565b610a93565b005b6103f260048036038101906103ed9190612759565b610ab3565b6040516103ff9190612389565b60405180910390f35b610410610ac5565b604051610423979695949392919061288e565b60405180910390f35b610434610b6f565b6040516104419190612284565b60405180910390f35b610464600480360381019061045f919061233a565b610c01565b60405161047191906121d9565b60405180910390f35b610494600480360381019061048f9190612912565b610c24565b6040516104a191906121d9565b60405180910390f35b6104c460048036038101906104bf9190612597565b610c96565b6040516104d191906121d9565b60405180910390f35b6104f460048036038101906104ef91906129ed565b610d03565b005b610510600480360381019061050b91906123a4565b610e4b565b60405161051d91906121d9565b60405180910390f35b610540600480360381019061053b919061233a565b610e71565b60405161054d9190612389565b60405180910390f35b610570600480360381019061056b9190612a8f565b610ef5565b60405161057d9190612389565b60405180910390f35b60007fb0202a11000000000000000000000000000000000000000000000000000000007bffffffffffffffffffffffffffffffffffffffffffffffffffffffff1916827bffffffffffffffffffffffffffffffffffffffffffffffffffffffff191614806105f957506105f882610f7c565b5b9050919050565b60606003805461060f90612afe565b80601f016020809104026020016040519081016040528092919081815260200182805461063b90612afe565b80156106885780601f1061065d57610100808354040283529160200191610688565b820191906000526020600020905b81548152906001019060200180831161066b57829003601f168201915b5050505050905090565b60008061069d610fe6565b90506106aa818585610fee565b600191505092915050565b60006106d183836040518060200160405280600081525061074e565b905092915050565b6000600254905090565b6000806106ee610fe6565b90506106fb858285611000565b610706858585611095565b60019150509392505050565b60006012905090565b6000610737838360405180602001604052806000815250610c96565b905092915050565b6000610749611189565b905090565b600061075a8484610c01565b61079d5783836040517f231b03ae000000000000000000000000000000000000000000000000000000008152600401610794929190612b2f565b60405180910390fd5b6107b86107a8610fe6565b6107b0610fe6565b868686611240565b600190509392505050565b6107d46107ce610fe6565b8261142c565b50565b6000806107e3866109d4565b90508085111561082a57806040517ffd9a76090000000000000000000000000000000000000000000000000000000081526004016108219190612389565b60405180910390fd5b60006108368787610e71565b905061084288876114ae565b7f439148f0bbc682ca079e46d6e2c2f0c1e3b820f1a291b069d8882abf8cf18dd98873ffffffffffffffffffffffffffffffffffffffff166323e30c8b610887610fe6565b8a8a868b8b6040518763ffffffff1660e01b81526004016108ad96959493929190612b96565b6020604051808303816000875af11580156108cc573d6000803e3d6000fd5b505050506040513d601f19601f820116820180604052508101906108f09190612c07565b1461093257876040517f678c5b000000000000000000000000000000000000000000000000000000000081526004016109299190612c34565b60405180910390fd5b600061093c611530565b90506109548930848a61094f9190612c7e565b611000565b600082148061098f5750600073ffffffffffffffffffffffffffffffffffffffff168173ffffffffffffffffffffffffffffffffffffffff16145b156109ae576109a98983896109a49190612c7e565b61142c565b6109c4565b6109b8898861142c565b6109c3898284611095565b5b6001935050505095945050505050565b60003073ffffffffffffffffffffffffffffffffffffffff168273ffffffffffffffffffffffffffffffffffffffff1614610a10576000610a44565b610a186106d9565b7fffffffffffffffffffffffffffffffffffffffffffffffffffffffffffffffff610a439190612cb2565b5b9050919050565b60008060008373ffffffffffffffffffffffffffffffffffffffff1673ffffffffffffffffffffffffffffffffffffffff168152602001908152602001600020549050919050565b610aa582610a9f610fe6565b83611000565b610aaf828261142c565b5050565b6000610abe82611535565b9050919050565b600060608060008060006060610ad961157e565b610ae16115b9565b46306000801b600067ffffffffffffffff811115610b0257610b0161246c565b5b604051908082528060200260200182016040528015610b305781602001602082028036833780820191505090505b507f0f00000000000000000000000000000000000000000000000000000000000000959493929190965096509650965096509650965090919293949596565b606060048054610b7e90612afe565b80601f0160208091040260200160405190810160405280929190818152602001828054610baa90612afe565b8015610bf75780601f10610bcc57610100808354040283529160200191610bf7565b820191906000526020600020905b815481529060010190602001808311610bda57829003601f168201915b5050505050905090565b600080610c0c610fe6565b9050610c19818585611095565b600191505092915050565b6000610c318585856106e3565b610c76578484846040517fb56855e6000000000000000000000000000000000000000000000000000000008152600401610c6d93929190612ce6565b60405180910390fd5b610c8a610c81610fe6565b86868686611240565b60019050949350505050565b6000610ca28484610692565b610ce55783836040517f50e555c4000000000000000000000000000000000000000000000000000000008152600401610cdc929190612b2f565b60405180910390fd5b610cf8610cf0610fe6565b8585856115f4565b600190509392505050565b83421115610d4857836040517f62791302000000000000000000000000000000000000000000000000000000008152600401610d3f9190612389565b60405180910390fd5b60007f6e71edae12b1b97f4d1f60370fef10105fa2faae0126114a169c64845d6126c9888888610d778c6117dd565b89604051602001610d8d96959493929190612d1d565b6040516020818303038152906040528051906020012090506000610db082611834565b90506000610dc08287878761184e565b90508973ffffffffffffffffffffffffffffffffffffffff168173ffffffffffffffffffffffffffffffffffffffff1614610e3457808a6040517f4b800e46000000000000000000000000000000000000000000000000000000008152600401610e2b929190612d7e565b60405180910390fd5b610e3f8a8a8a610fee565b50505050505050505050565b6000610e6884848460405180602001604052806000815250610c24565b90509392505050565b60003073ffffffffffffffffffffffffffffffffffffffff168373ffffffffffffffffffffffffffffffffffffffff1614610ee357826040517fb5a7db92000000000000000000000000000000000000000000000000000000008152600401610eda9190612c34565b60405180910390fd5b610eed838361187e565b905092915050565b6000600160008473ffffffffffffffffffffffffffffffffffffffff1673ffffffffffffffffffffffffffffffffffffffff16815260200190815260200160002060008373ffffffffffffffffffffffffffffffffffffffff1673ffffffffffffffffffffffffffffffffffffffff16815260200190815260200160002054905092915050565b60007f01ffc9a7000000000000000000000000000000000000000000000000000000007bffffffffffffffffffffffffffffffffffffffffffffffffffffffff1916827bffffffffffffffffffffffffffffffffffffffffffffffffffffffff1916149050919050565b600033905090565b610ffb8383836001611886565b505050565b600061100c8484610ef5565b90507fffffffffffffffffffffffffffffffffffffffffffffffffffffffffffffffff81101561108f578181101561107f578281836040517ffb8f41b200000000000000000000000000000000000000000000000000000000815260040161107693929190612da7565b60405180910390fd5b61108e84848484036000611886565b5b50505050565b600073ffffffffffffffffffffffffffffffffffffffff168373ffffffffffffffffffffffffffffffffffffffff16036111075760006040517f96c6fd1e0000000000000000000000000000000000000000000000000000000081526004016110fe9190612c34565b60405180910390fd5b600073ffffffffffffffffffffffffffffffffffffffff168273ffffffffffffffffffffffffffffffffffffffff16036111795760006040517fec442f050000000000000000000000000000000000000000000000000000000081526004016111709190612c34565b60405180910390fd5b611184838383611a5d565b505050565b60007f000000000000000000000000000000000000000000000000000000000000000073ffffffffffffffffffffffffffffffffffffffff163073ffffffffffffffffffffffffffffffffffffffff1614801561120557507f000000000000000000000000000000000000000000000000000000000000000046145b15611232577f0000000000000000000000000000000000000000000000000000000000000000905061123d565b61123a611c82565b90505b90565b60008373ffffffffffffffffffffffffffffffffffffffff163b0361129c57826040517f8a96cd9c0000000000000000000000000000000000000000000000000000000081526004016112939190612c34565b60405180910390fd5b8273ffffffffffffffffffffffffffffffffffffffff166388a7ca5c868685856040518563ffffffff1660e01b81526004016112db9493929190612e22565b6020604051808303816000875af192505050801561131757506040513d601f19601f820116820180604052508101906113149190612e83565b60015b61139b573d8060008114611347576040519150601f19603f3d011682016040523d82523d6000602084013e61134c565b606091505b50600081510361139357836040517f8a96cd9c00000000000000000000000000000000000000000000000000000000815260040161138a9190612c34565b60405180910390fd5b805160208201fd5b6388a7ca5c60e01b7bffffffffffffffffffffffffffffffffffffffffffffffffffffffff1916817bffffffffffffffffffffffffffffffffffffffffffffffffffffffff19161461142457836040517f8a96cd9c00000000000000000000000000000000000000000000000000000000815260040161141b9190612c34565b60405180910390fd5b505050505050565b600073ffffffffffffffffffffffffffffffffffffffff168273ffffffffffffffffffffffffffffffffffffffff160361149e5760006040517f96c6fd1e0000000000000000000000000000000000000000000000000000000081526004016114959190612c34565b60405180910390fd5b6114aa82600083611a5d565b5050565b600073ffffffffffffffffffffffffffffffffffffffff168273ffffffffffffffffffffffffffffffffffffffff16036115205760006040517fec442f050000000000000000000000000000000000000000000000000000000081526004016115179190612c34565b60405180910390fd5b61152c60008383611a5d565b5050565b600090565b6000600760008373ffffffffffffffffffffffffffffffffffffffff1673ffffffffffffffffffffffffffffffffffffffff168152602001908152602001600020549050919050565b60606115b460057f0000000000000000000000000000000000000000000000000000000000000000611d1890919063ffffffff16565b905090565b60606115ef60067f0000000000000000000000000000000000000000000000000000000000000000611d1890919063ffffffff16565b905090565b60008373ffffffffffffffffffffffffffffffffffffffff163b0361165057826040517fdeb6d3ed0000000000000000000000000000000000000000000000000000000081526004016116479190612c34565b60405180910390fd5b8273ffffffffffffffffffffffffffffffffffffffff16637b04a2d08584846040518463ffffffff1660e01b815260040161168d93929190612eb0565b6020604051808303816000875af19250505080156116c957506040513d601f19601f820116820180604052508101906116c69190612e83565b60015b61174d573d80600081146116f9576040519150601f19603f3d011682016040523d82523d6000602084013e6116fe565b606091505b50600081510361174557836040517fdeb6d3ed00000000000000000000000000000000000000000000000000000000815260040161173c9190612c34565b60405180910390fd5b805160208201fd5b637b04a2d060e01b7bffffffffffffffffffffffffffffffffffffffffffffffffffffffff1916817bffffffffffffffffffffffffffffffffffffffffffffffffffffffff1916146117d657836040517fdeb6d3ed0000000000000000000000000000000000000000000000000000000081526004016117cd9190612c34565b60405180910390fd5b5050505050565b6000600760008373ffffffffffffffffffffffffffffffffffffffff1673ffffffffffffffffffffffffffffffffffffffff1681526020019081526020016000206000815480929190600101919050559050919050565b6000611847611841611189565b83611dc8565b9050919050565b60008060008061186088888888611e09565b9250925092506118708282611efd565b829350505050949350505050565b600092915050565b600073ffffffffffffffffffffffffffffffffffffffff168473ffffffffffffffffffffffffffffffffffffffff16036118f85760006040517fe602df050000000000000000000000000000000000000000000000000000000081526004016118ef9190612c34565b60405180910390fd5b600073ffffffffffffffffffffffffffffffffffffffff168373ffffffffffffffffffffffffffffffffffffffff160361196a5760006040517f94280d620000000000000000000000000000000000000000000000000000000081526004016119619190612c34565b60405180910390fd5b81600160008673ffffffffffffffffffffffffffffffffffffffff1673ffffffffffffffffffffffffffffffffffffffff16815260200190815260200160002060008573ffffffffffffffffffffffffffffffffffffffff1673ffffffffffffffffffffffffffffffffffffffff168152602001908152602001600020819055508015611a57578273ffffffffffffffffffffffffffffffffffffffff168473ffffffffffffffffffffffffffffffffffffffff167f8c5be1e5ebec7d5bd14f71427d1e84f3dd0314c0f7b2291e5b200ac8c7c3b92584604051611a4e9190612389565b60405180910390a35b50505050565b600073ffffffffffffffffffffffffffffffffffffffff168373ffffffffffffffffffffffffffffffffffffffff1603611aaf578060026000828254611aa39190612c7e565b92505081905550611b82565b60008060008573ffffffffffffffffffffffffffffffffffffffff1673ffffffffffffffffffffffffffffffffffffffff16815260200190815260200160002054905081811015611b3b578381836040517fe450d38c000000000000000000000000000000000000000000000000000000008152600401611b3293929190612da7565b60405180910390fd5b8181036000808673ffffffffffffffffffffffffffffffffffffffff1673ffffffffffffffffffffffffffffffffffffffff16815260200190815260200160002081905550505b600073ffffffffffffffffffffffffffffffffffffffff168273ffffffffffffffffffffffffffffffffffffffff1603611bcb5780600260008282540392505081905550611c18565b806000808473ffffffffffffffffffffffffffffffffffffffff1673ffffffffffffffffffffffffffffffffffffffff168152602001908152602001600020600082825401925050819055505b8173ffffffffffffffffffffffffffffffffffffffff168373ffffffffffffffffffffffffffffffffffffffff167fddf252ad1be2c89b69c2b068fc378daa952ba7f163c4a11628f55a4df523b3ef83604051611c759190612389565b60405180910390a3505050565b60007f8b73c3c69bb8fe3d512ecc4cf759cc79239f7b179b0ffacaa9a75d522b39400f7f00000000000000000000000000000000000000000000000000000000000000007f00000000000000000000000000000000000000000000000000000000000000004630604051602001611cfd959493929190612eee565b60405160208183030381529060405280519060200120905090565b606060ff60001b8314611d3557611d2e83612061565b9050611dc2565b818054611d4190612afe565b80601f0160208091040260200160405190810160405280929190818152602001828054611d6d90612afe565b8015611dba5780601f10611d8f57610100808354040283529160200191611dba565b820191906000526020600020905b815481529060010190602001808311611d9d57829003601f168201915b505050505090505b92915050565b60006040517f190100000000000000000000000000000000000000000000000000000000000081528360028201528260228201526042812091505092915050565b60008060007f7fffffffffffffffffffffffffffffff5d576e7357a4501ddfe92f46681b20a08460001c1115611e49576000600385925092509250611ef3565b600060018888888860405160008152602001604052604051611e6e9493929190612f41565b6020604051602081039080840390855afa158015611e90573d6000803e3d6000fd5b505050602060405103519050600073ffffffffffffffffffffffffffffffffffffffff168173ffffffffffffffffffffffffffffffffffffffff1603611ee457600060016000801b93509350935050611ef3565b8060008060001b935093509350505b9450945094915050565b60006003811115611f1157611f10612f86565b5b826003811115611f2457611f23612f86565b5b031561205d5760016003811115611f3e57611f3d612f86565b5b826003811115611f5157611f50612f86565b5b03611f88576040517ff645eedf00000000000000000000000000000000000000000000000000000000815260040160405180910390fd5b60026003811115611f9c57611f9b612f86565b5b826003811115611faf57611fae612f86565b5b03611ff4578060001c6040517ffce698f7000000000000000000000000000000000000000000000000000000008152600401611feb9190612389565b60405180910390fd5b60038081111561200757612006612f86565b5b82600381111561201a57612019612f86565b5b0361205c57806040517fd78bce0c0000000000000000000000000000000000000000000000000000000081526004016120539190612447565b60405180910390fd5b5b5050565b6060600061206e836120d5565b90506000602067ffffffffffffffff81111561208d5761208c61246c565b5b6040519080825280601f01601f1916602001820160405280156120bf5781602001600182028036833780820191505090505b5090508181528360208201528092505050919050565b60008060ff8360001c169050601f81111561211c576040517fb3512b0c00000000000000000000000000000000000000000000000000000000815260040160405180910390fd5b80915050919050565b6000604051905090565b600080fd5b600080fd5b60007fffffffff0000000000000000000000000000000000000000000000000000000082169050919050565b61216e81612139565b811461217957600080fd5b50565b60008135905061218b81612165565b92915050565b6000602082840312156121a7576121a661212f565b5b60006121b58482850161217c565b91505092915050565b60008115159050919050565b6121d3816121be565b82525050565b60006020820190506121ee60008301846121ca565b92915050565b600081519050919050565b600082825260208201905092915050565b60005b8381101561222e578082015181840152602081019050612213565b60008484015250505050565b6000601f19601f8301169050919050565b6000612256826121f4565b61226081856121ff565b9350612270818560208601612210565b6122798161223a565b840191505092915050565b6000602082019050818103600083015261229e818461224b565b905092915050565b600073ffffffffffffffffffffffffffffffffffffffff82169050919050565b60006122d1826122a6565b9050919050565b6122e1816122c6565b81146122ec57600080fd5b50565b6000813590506122fe816122d8565b92915050565b6000819050919050565b61231781612304565b811461232257600080fd5b50565b6000813590506123348161230e565b92915050565b600080604083850312156123515761235061212f565b5b600061235f858286016122ef565b925050602061237085828601612325565b9150509250929050565b61238381612304565b82525050565b600060208201905061239e600083018461237a565b92915050565b6000806000606084860312156123bd576123bc61212f565b5b60006123cb868287016122ef565b93505060206123dc868287016122ef565b92505060406123ed86828701612325565b9150509250925092565b600060ff82169050919050565b61240d816123f7565b82525050565b60006020820190506124286000830184612404565b92915050565b6000819050919050565b6124418161242e565b82525050565b600060208201905061245c6000830184612438565b92915050565b600080fd5b600080fd5b7f4e487b7100000000000000000000000000000000000000000000000000000000600052604160045260246000fd5b6124a48261223a565b810181811067ffffffffffffffff821117156124c3576124c261246c565b5b80604052505050565b60006124d6612125565b90506124e2828261249b565b919050565b600067ffffffffffffffff8211156125025761250161246c565b5b61250b8261223a565b9050602081019050919050565b82818337600083830152505050565b600061253a612535846124e7565b6124cc565b90508281526020810184848401111561255657612555612467565b5b612561848285612518565b509392505050565b600082601f83011261257e5761257d612462565b5b813561258e848260208601612527565b91505092915050565b6000806000606084860312156125b0576125af61212f565b5b60006125be868287016122ef565b93505060206125cf86828701612325565b925050604084013567ffffffffffffffff8111156125f0576125ef612134565b5b6125fc86828701612569565b9150509250925092565b60006020828403121561261c5761261b61212f565b5b600061262a84828501612325565b91505092915050565b600061263e826122c6565b9050919050565b61264e81612633565b811461265957600080fd5b50565b60008135905061266b81612645565b92915050565b600080fd5b600080fd5b60008083601f84011261269157612690612462565b5b8235905067ffffffffffffffff8111156126ae576126ad612671565b5b6020830191508360018202830111156126ca576126c9612676565b5b9250929050565b6000806000806000608086880312156126ed576126ec61212f565b5b60006126fb8882890161265c565b955050602061270c888289016122ef565b945050604061271d88828901612325565b935050606086013567ffffffffffffffff81111561273e5761273d612134565b5b61274a8882890161267b565b92509250509295509295909350565b60006020828403121561276f5761276e61212f565b5b600061277d848285016122ef565b91505092915050565b60007fff0000000000000000000000000000000000000000000000000000000000000082169050919050565b6127bb81612786565b82525050565b6127ca816122c6565b82525050565b600081519050919050565b600082825260208201905092915050565b6000819050602082019050919050565b61280581612304565b82525050565b600061281783836127fc565b60208301905092915050565b6000602082019050919050565b600061283b826127d0565b61284581856127db565b9350612850836127ec565b8060005b83811015612881578151612868888261280b565b975061287383612823565b925050600181019050612854565b5085935050505092915050565b600060e0820190506128a3600083018a6127b2565b81810360208301526128b5818961224b565b905081810360408301526128c9818861224b565b90506128d8606083018761237a565b6128e560808301866127c1565b6128f260a0830185612438565b81810360c08301526129048184612830565b905098975050505050505050565b6000806000806080858703121561292c5761292b61212f565b5b600061293a878288016122ef565b945050602061294b878288016122ef565b935050604061295c87828801612325565b925050606085013567ffffffffffffffff81111561297d5761297c612134565b5b61298987828801612569565b91505092959194509250565b61299e816123f7565b81146129a957600080fd5b50565b6000813590506129bb81612995565b92915050565b6129ca8161242e565b81146129d557600080fd5b50565b6000813590506129e7816129c1565b92915050565b600080600080600080600060e0888a031215612a0c57612a0b61212f565b5b6000612a1a8a828b016122ef565b9750506020612a2b8a828b016122ef565b9650506040612a3c8a828b01612325565b9550506060612a4d8a828b01612325565b9450506080612a5e8a828b016129ac565b93505060a0612a6f8a828b016129d8565b92505060c0612a808a828b016129d8565b91505092959891949750929550565b60008060408385031215612aa657612aa561212f565b5b6000612ab4858286016122ef565b9250506020612ac5858286016122ef565b9150509250929050565b7f4e487b7100000000000000000000000000000000000000000000000000000000600052602260045260246000fd5b60006002820490506001821680612b1657607f821691505b602082108103612b2957612b28612acf565b5b50919050565b6000604082019050612b4460008301856127c1565b612b51602083018461237a565b9392505050565b600082825260208201905092915050565b6000612b758385612b58565b9350612b82838584612518565b612b8b8361223a565b840190509392505050565b600060a082019050612bab60008301896127c1565b612bb860208301886127c1565b612bc5604083018761237a565b612bd2606083018661237a565b8181036080830152612be5818486612b69565b9050979650505050505050565b600081519050612c01816129c1565b92915050565b600060208284031215612c1d57612c1c61212f565b5b6000612c2b84828501612bf2565b91505092915050565b6000602082019050612c4960008301846127c1565b92915050565b7f4e487b7100000000000000000000000000000000000000000000000000000000600052601160045260246000fd5b6000612c8982612304565b9150612c9483612304565b9250828201905080821115612cac57612cab612c4f565b5b92915050565b6000612cbd82612304565b9150612cc883612304565b9250828203905081811115612ce057612cdf612c4f565b5b92915050565b6000606082019050612cfb60008301866127c1565b612d0860208301856127c1565b612d15604083018461237a565b949350505050565b600060c082019050612d326000830189612438565b612d3f60208301886127c1565b612d4c60408301876127c1565b612d59606083018661237a565b612d66608083018561237a565b612d7360a083018461237a565b979650505050505050565b6000604082019050612d9360008301856127c1565b612da060208301846127c1565b9392505050565b6000606082019050612dbc60008301866127c1565b612dc9602083018561237a565b612dd6604083018461237a565b949350505050565b600081519050919050565b6000612df482612dde565b612dfe8185612b58565b9350612e0e818560208601612210565b612e178161223a565b840191505092915050565b6000608082019050612e3760008301876127c1565b612e4460208301866127c1565b612e51604083018561237a565b8181036060830152612e638184612de9565b905095945050505050565b600081519050612e7d81612165565b92915050565b600060208284031215612e9957612e9861212f565b5b6000612ea784828501612e6e565b91505092915050565b6000606082019050612ec560008301866127c1565b612ed2602083018561237a565b8181036040830152612ee48184612de9565b9050949350505050565b600060a082019050612f036000830188612438565b612f106020830187612438565b612f1d6040830186612438565b612f2a606083018561237a565b612f3760808301846127c1565b9695505050505050565b6000608082019050612f566000830187612438565b612f636020830186612404565b612f706040830185612438565b612f7d6060830184612438565b95945050505050565b7f4e487b7100000000000000000000000000000000000000000000000000000000600052602160045260246000fdfea26469706673582212209b8b8eaac44a74b515388c35607e88a42f66d1740e14a8d996e1de9cf69ac86064736f6c634300081b0033",
  "linkReferences": {},
  "deployedLinkReferences": {}
}